:1000000071C0000086C0000084C0000082C00000F3
:1000100080C000007EC000007CC000007AC00000EC
:1000200078C0000076C0000074C0000072C00000FC
:1000300070C000006EC000006CC000006AC000000C
:1000400068C0000066C0000064C0000062C000001C
:1000500060C000005EC000005CC000005AC000002C
:1000600058C0000056C0000054C0000052C000003C
:1000700050C000004EC000004CC000004AC000004C
:1000800048C0000046C0000044C0000042C000005C
:1000900040C000003EC000003CC000003AC000006C
:1000A00038C0000036C0000034C0000032C000007C
:1000B00030C000002EC000002CC000002AC000008C
:1000C00028C0000026C0000024C0000022C000009C
:1000D00020C000001EC000001CC000001AC00000AC
:1000E00018C0000011241FBECFEFD1E2DEBFCDBF8C
:1000F00000E00CBF12E0A0E0B2E0ECE7F1E000E0CD
:100100000BBF02C007900D92A433B107D9F731D0CD
:1001100033C076CF9091C00095FFFCCF8093C6008E
:100120000895CF93DF93EC0102C0F4DF219688811C
:100130008111FBCFDF91CF9108951092C50087E622
:100140008093C40088E18093C10086E08093C20060
:1001500080E092E0E6CF08958FE192E0E2DF2FE3C6
:100160008DE093E0215080409040E1F700C0000016
:0C0170000895E3DFF1DFFDCFF894FFCF2E
:10017C005541525420496E697469616C697A6564A1
:10018C002061742039363030206270730D0A0048BB
:10019C00656C6C6F2C2041546D656761323536305F
:0401AC00210D0A0017
:00000001FF
